:020000040800F2
:10000000900F00203502000815350008C7220008AF
:100010001135000891210008634900080000000024
:10002000000000000000000000000000B53B0008D8
:100030009521000800000000A93500085D3E000879
:100040004F0200084F0200084F0200084139000823
:100050004F0200084F0200084F0200084F0200083C
:100060004F0200084F0200084F0200084F0200082C
:100070004F0200084F0200084F0200084F0200081C
:100080004F0200084F0200084F0200084F0200080C
:100090004F0200084F0200084F0200084F020008FC
:1000A0004F0200084F0200084F0200084F020008EC
:1000B000C13E0008FD420008854300084F020008C9
:1000C0004F0200084F0200084F0200084F020008CC
:1000D0004F0200085D450008E54500089D46000800
:1000E0004F0200084F0200084F02000800F002F81B
:1000F00000F090F80AA090E8000C82448344AAF132
:100100000107DA4501D100F085F8AFF2090EBAE82F
:100110000F0013F0010F18BFFB1A43F0010318473B
:10012000E49D0000049E0000103A24BF78C878C106
:10013000FAD8520724BF30C830C144BF04680C60ED
:10014000704700000023002400250026103A28BF35
:1001500078C1FBD8520728BF30C148BF0B60704739
:100160006E2900F05F84702900F0C985662905F0CA
:100170009187652905F08E87672905F08B876129AE
:10018000AFF3008003681B0A28BF41F08001692992
:1001900000F0BA80642900F0B780752900F0B480BF
:1001A0006F2900F05685782900F09585E92900F03F
:1001B000F184E42900F0EE84F52900F0EB84EF29C6
:1001C00000F05385F82900F094850368DB0928BF07
:1001D00041F08001632900F06084732900F0658498
:1001E000E32901F06980F32901F06E800020704757
:1001F0001FB501F079FA04000020002105F02AFA69
:10020000401C60600020002105F00EFAE0601FBD78
:1002100010B510BD01F03AFA1146FFF7E9FF04F0FE
:1002200013FE01F017FB03B4FFF7F2FF03BC04F069
:10023000B5FB00000948804709480047FEE7FEE794
:10024000FEE7FEE7FEE7FEE7FEE7FEE7FEE7FEE786
:1002500004480549054A064B70470000613E000806
:10026000ED00000890090020900F0020900B002066
:10027000900B0020704700001CB50C46064B7B44D9
:1002800069460090204600F0E6FB044600206946DF
:1002900000F0F4FB20461CBDFB0700000FB404492E
:1002A00010B503AA029800F005FC10BC5DF814FB21
:1002B0004800002070B50C460546012A05D0287874
:1002C000800600D5EA69002302E0012305E05B1CFB
:1002D000934202D2E05C0028F9D1A869E618C01A5E
:1002E000A861286A18442862284600F009FB04E047
:1002F000D5E9012114F8010B9047B442F8D3284600
:1003000000F014FB70BD00002DE9F041064600240A
:1003100010687529314616A510D000F018FB00288A
:1003200002DA404213A507E031688A0701D512A519
:1003300002E0490704D511A5012401E000F010FBFB
:1003400000210A2206F1240709E0B0FBF2FCB0FB11
:10035000F2F302FB1C00303078541846491C002888
:10036000F3D123462A463046BDE8F04100F001BBF8
:10037000000000002D0000002B0000002000000005
:100380002DE9F05F894604464FF0000ADFF874B1AA
:10039000FB44C0F820A02046E1688847002874D0BC
:1003A000252806D0D4E901219047206A401C20620C
:1003B000F1E700265F462046E16888472028054689
:1003C00007DB312D05D2781910F8200C08B106434F
:1003D000F1E7B00701D526F00406C4F81CA00027F9
:1003E000C4F818A02A2D09D0284604F0D0FA38B352
:1003F00004EB8708303DC8F8185019E059F8041B81
:10040000204604EB87029161E1688847012F054689
:1004100018D1E069002820DA26F020061DE0D8F87F
:10042000180000EB800005EB40003038C8F81800D9
:100430002046E1688847054604F0A9FA0028EED175
:10044000012F0AD02E2D08D12046E16888477F1C55
:100450000546022F46F02006C4DBA069002803DA17
:10046000404246F00106A061F00701D026F01006D8
:100470006C2D0BD0682D09D04C2D39D06A2D35D07C
:10048000742D35D07A2D33D016E038E0E1682F4650
:1004900020468847B842054609D16C2F26D04FF434
:1004A0008060E168064320468847054604E06C2FDB
:1004B0001AD04FF4807006430DB3A5F141001928FE
:1004C00002D8203546F400664A4629462046266072
:1004D0004E46FFF745FE80B101280BD0F61D26F0F1
:1004E000070000F1080956E74020E4E78020D8E73C
:1004F0000020D6E706F104094DE7284652E7206AB6
:10050000BDE8F09F9A9A00000FB400B58DB010A915
:10051000099000910B904FF0FF300A9000200C9052
:10052000064878440690064878446A4607900F9932
:1005300009A800F003FC0DB05DF814FB37080000BB
:100540004F0800002DE9FF5F1D464FF0FF3B91462D
:100550004FF000085F46D5E90146A96901987F1C64
:100560008847296A824688470028F6D1BAF1FF3FBA
:100570000CD0002E24F4C06419DD600614D5BAF145
:100580002B0F09D0BAF12D0F0ED103E0584604B05D
:10059000BDE8F09F44F48064A96901987F1C8847F6
:1005A000761E8246002E02DDBAF1300F03D0B9F17B
:1005B000000F26D032E0A969761E01987F1C44F412
:1005C00000748847002E824605DDBAF1780F06D008
:1005D000BAF1580F03D0B9F1000F10D01EE0B9F1F5
:1005E000000F02D0B9F1100F18D1A969761E019839
:1005F0007F1C24F4007488478246102002E0082003
:1006000000E00A20814609E0A96908FB0908761E76
:1006100001987F1C44F4007488478246002E05DD53
:100620004946504600F076FB0028EDDAE96901986A
:100630008847A00502D46FF00100A8E7E00725D1A4
:10064000600613D5600502D5C8F1000000E0404601
:1006500029680A1D2A600968220501D5087015E07D
:10066000220701D5088011E008600FE02868011D0D
:1006700029600068210502D580F8008006E0210786
:1006800002D5A0F8008001E0C0F8008038467EE77F
:10069000401ECAB210F8011F8A4202D00029F9D1C7
:1006A0000020704730B505460B462A4613F8014B2B
:1006B00012F8010B08B1A042F8D01CB1002802D0FA
:1006C0006D1CF1E7284630BD831840EA0102F0B501
:1006D0000E464FF001344FF000079207A3F10103DB
:1006E00002D029E004C0091D051D0A689D4206D8F4
:1006F000151B954315EAC41FF4D000E0091D0D68D1
:10070000A5EB040C2CEA050C1CEAC41FF6D000E093
:10071000491C0C78002CFBD1984203D3984218D185
:10072000077016E012F0FF0400F8014B11D0120A16
:10073000F2E7491C00F8012B984202D20A78002AFD
:10074000F7D1984202D8077000E0491C08780028C9
:10075000FBD1881BF0BD40EA0103024630B59B0780
:1007600010D14FF0013400E008C208C91D1B9D43A1
:1007700015EAC41FF8D013F0FF0102F8011B0DD0D9
:100780001B0AF8E711F8013B002B02F8013B05D0EA
:1007900011F8013B002B02F8013BF3D130BD10B53D
:1007A000431C02E010F8011B71B18107FAD14FF030
:1007B000013202C88C1A8C4314EAC211F9D0C01A53
:1007C0000A0603D0C01E10BDC01A10BD0A0401D015
:1007D000801E10BD0902FCD0401E10BD4FF000026B
:1007E0000429C0F0128010F0030C00F0D982CCF183
:1007F000040CBCF1020F18BF00F8012BA8BF20F8B1
:10080000022BA1EB0C0100F0CBBA5FEAC17C24BF44
:1008100000F8012B00F8012B48BF00F8012B7047AE
:1008200010B5044610F0030F08BF11F0030F40F09D
:1008300015804FF0013E121FC0F20E8051F8043BAC
:10084000A3EB0E0C2CEA030C1CEACE1C08BF40F8EC
:10085000043BF0D0A1F1040102F10402521E08DBB6
:1008600011F8013B002B00F8013BF7D11146FFF7CF
:10087000B5FF204610BD00004FF0013C50F8042B9E
:1008800051F8043B9A4221D1A2EB0C03934313EAA3
:10089000CC1317D150F8042B51F8043B9A4215D1D0
:1008A000A2EB0C03934313EACC130BD150F8042BA7
:1008B00051F8043B9A4209D1A2EB0C03934313EA8B
:1008C000CC13DBD04FF00000704700BFD01A01BA44
:1008D000B1FA81F101F0180122FA01F0CB40C1F127
:1008E0002001DBB2C0B2C01A2CFA01F3D11A914335
:1008F00011EAC311E6D170477047704770477047DF
:1009000070B5044685690068C10601D5302600E04F
:100910002026C00707D070BDD4E90121304690479A
:10092000206A401C20626D1EF6D570BD70B504466D
:1009300085690078C00707D170BDD4E90121202066
:100940009047206A401C20626D1EF6D570BD096874
:100950004A0501D540B27047C905FCD500B27047C1
:1009600009684A0501D5C0B27047C905FCD580B2F7
:1009700070472DE9F0470D4699469246044600F12E
:1009800024080168880604D5E06921F0100121607F
:1009900000E00120A84201DD471B00E00027A1691B
:1009A0007A1902EB0900081AA0612078C00602D467
:1009B0002046FFF7A5FF002608E0D4E901211AF838
:1009C00006009047206A401C761C20624E45F4DBEE
:1009D0002078C0060AD52046FFF792FF06E0D4E94A
:1009E000012130209047206A401C2062381EA7F168
:1009F0000107F4DC07E0D4E9012118F8050090476D
:100A0000206A401C2062281EA5F10105F3DC204667
:100A1000FFF78CFF2078000602D50220BDE8F087A2
:100A20000120FBE711680268006A530501D50870D0
:100A30000AE0D30501D5088006E0130603D5C217E6
:100A4000C1E9000200E008600120704701694A1C0A
:100A500002610878704700B58FB0CDE901310021FF
:100A6000059105497944CDE9031011466846FFF721
:100A700087FC0FB000BD0000E5FFFFFF0A6802F829
:100A8000010B0A60704710B5436913B1AFF30080E2
:100A900001E0FFF70FFC012010BD127800F12401E6
:100AA0000A7000224A700122EDE711684FF0FF3210
:100AB000E9E70000074B70B50D467B44FFF7CBFF1D
:100AC0000446284600F0BEFD10B14FF0FF3070BD67
:100AD000204670BD1B4300002DE9FF5F15468A4686
:100AE0000446DFF8AC80F8440027D8E900103E4601
:100AF000CDE9001010E03AF816106A4602A800F09E
:100B0000A5FD411C07D02178890603D5E269391873
:100B100091420DD80744761C2078800602D5E06902
:100B2000B84205DDAE42E6DB3AF816000028E2D115
:100B3000A069C01BA0612046FFF7E2FED8E90010C3
:100B4000CDE90010002017E03AF818106A4602A814
:100B500000F07CFDB0F1FF3F81460BD000250DF188
:100B6000080B05E0D4E901211BF8050090476D1C36
:100B70004D45F7D308F10100B0428046E4DB206A1E
:100B8000384420622046FFF7D1FEBDE8FF9F0000F9
:100B9000569300002DE9F0418046D21D22F0070255
:100BA0000025D2E90002F52915A614D0011E72F124
:100BB000000106DA0023D0EB030063EB020211A66A
:100BC00008E0D8F800108B0701D50FA602E049070E
:100BD00001D50EA601251146002408F1240704E0E2
:100BE00000F003F930323A55641C50EA0102F7D1A3
:100BF0002B46324621464046BDE8F041FFF7B9BEDC
:100C0000000000002D0000002B000000200000006C
:100C100030B4002100F1240408E002F00705D208F6
:100C2000303542EA4372DB086554491C52EA030539
:100C3000F3D10468002310A2250707D5A40600D429
:100C400021B1C46901230DA2641EC46130BCFFF749
:100C500090BE10B5044621461068FFF781FE02469B
:100C60002046BDE810400023D2E7D21D22F0070144
:100C7000D1E90023CCE700000000000030000000B4
:100C8000F0B40D460188090502D5214C7C4402E0F0
:100C90001F4C7C440E34002100F1240608E002F0D1
:100CA0000F071209E75D42EA03721B097754491CDA
:100CB00052EA0307F3D102780023120704D5702DFE
:100CC00006D009B1022311342246F0BCFFF751BE11
:100CD00001231034F8E770B504460D46214610682C
:100CE000FFF73EFE024629462046BDE8704000233D
:100CF000C6E7D21D22F00703D3E90023C0E703684B
:100D0000126843F0200303600823C3610023B7E7A0
:100D1000B89100003A2800D2303820F02002412A51
:100D200001D3A2F13700884201D34FF0FF30704762
:100D3000026811441378016018467047D160054974
:100D400079445161044979441162002111611146CD
:100D500000F0BEBAEDFFFFFF2B010000426842B178
:100D6000016811F8013B23B1521EC0E90012184678
:100D700070470121C160881E704742685AB1C3683C
:100D8000016843B983688B4205D0491E521CC0E9F3
:100D90000012002070474FF0FF3070474FF0000204
:100DA00000B5134694469646203922BFA0E80C5061
:100DB000A0E80C50B1F12001BFF4F7AF090728BF3C
:100DC000A0E80C5048BF0CC05DF804EB890028BFB8
:100DD00040F8042B08BF704748BF20F8022B11F0E1
:100DE000804F18BF00F8012B704730B5B0F10A02F0
:100DF0004FEA900E71F100034EEA817EB0EB0E00D7
:100E000061EB91014FEA101E4EEA017E10EB0E00DD
:100E100041EB11114FEA102E4EEA016E10EB0E005D
:100E200041EB11214FEA104E4EEA014E10EB0E003D
:100E300041EB1141401841F100014FEAD00040EA76
:100E400041704FEAD10110EB80054FEA810444EA7A
:100E5000907444EB01046D1944EB0404521BA3414C
:100E60004FF0000348BF0A3200D530BD401C41F1AD
:100E7000000130BD10B5044600F02EFC0068005D96
:100E800000F0010010BD70472DE9FF4F0C461E46D3
:100E90004FF0FF378BB0D2E90001DDF860800A9097
:100EA0008A46C1F30A5505B93D46002108464FF070
:100EB0000000BAF1000F00F4400005DA00EB8000FA
:100EC0004FF4400101EA50004FEA9059B9F1010F87
:100ED00000DDB9460A9850EA4A000ED044F6105098
:100EE000A5F2FF3545432F14B8F1000F1ED075420F
:100EF000291E1EDDC9F100021CE0B8F1010F4FF000
:100F0000000001D0302103E0F24305E02154401CF1
:100F1000B042FBDB30460022002121540B99C1F87E
:100F20000880C1E900200FB0BDE8F08FBD1B6D1C2B
:100F3000DEE74A4600DA694206A800F019FC06AB73
:100F400093E8070003AB83E8070050460A9900F0D6
:100F50008FFC8DE80700A0F500501F380090039823
:100F6000002D0ADD42F21F014A460844002303A96E
:100F70000390684600F0F8FE09E0A0F500504A46EC
:100F80001F38002303A90390684600F002FF8DE894
:100F900007000004000C03D04FF0FF30410800E0D0
:100FA0001046B8F1000F03D00022009215461EE053
:100FB000751E05D4FFF719FF303262556D1EF9D545
:100FC000B3460122084302D000227F1C04E02078AF
:100FD000302801D100227F1E002A099784D01DE00D
:100FE000112D07DAFFF701FF303262556D1C50EA10
:100FF0000102F5D1084302D00098C8B10EE00021EB
:10100000681E05E0235C625C63542254401E491C48
:101010008142F7DBAB46A81B401E0990002004F874
:101020000B000B98099AC0F80880C0E9002B7AE7FA
:1010300011264FF0000857E72DE9F04F8846044687
:10104000D21D22F0070191B0D1E90001CDE90A01DA
:1010500003F089FC02460B98C00F01D02D2007E059
:101060002068810701D52B2002E0202101EAC00081
:10107000032A099001D0072A05DB03464146204692
:1010800000F036FB0BE12078800601D5E06900E036
:101090000620B8F1650F814606D0B8F1660F18D06A
:1010A000B8F1670F70D131E00020B9F1110F009055
:1010B00001DB112301E009F101030AAA01A90CA82F
:1010C000FFF7E2FEDDE90C70002609F10105834619
:1010D00047E001204B4600904FF000470AAA01A9C3
:1010E0000CA8FFF7D1FEDDE90DB00C995D46002696
:1010F00010B909F101000D18B9EB050003D4C0F1D6
:10110000FF3609F10105A5EB09002BE0B9F1010F4C
:1011100001DA4FF001090020B9F1110F00904846A3
:1011200001DD112300E003460AAA01A90CA8FFF77C
:10113000ABFEDDE90C704D460026834620780007A3
:101140000AD4AB4500DA5D4601A8012D04DD411942
:1011500011F8011C302907D04F4502DA17F1040FAE
:1011600004DA012082460FE06D1EEEE7002F02DC5C
:10117000ED1B3E4403E0781CA84200DD7D1CB81B3B
:1011800000F1010A4FF000472078000703D4AA4578
:1011900001DB4FF0FF3A0021B7F1004F0DF143089A
:1011A0008DF8431024D002202B23002F01DA7F4238
:1011B0002D230A21021EA0F1010000DC5FB197FB84
:1011C000F1FC97FBF1F201FB1C7C17460CF1300C93
:1011D00008F801CDEEE7A8F10100037021880905A8
:1011E00001D5452100E06521A0F1010800F8011CAE
:1011F00009980FA9A1EB0807FF1D00B101204119B3
:1012000001EBEA70A1693844081A401EA0612078F9
:10121000C00602D42046FFF773FB099828B1D4E931
:1012200001219047206A401C20622078C00622D508
:101230002046FFF765FB1EE0002E04DBB34502DD10
:1012400001A8805D00E03020D4E901219047206AA8
:10125000401C2062761CAAF101005FEA000A0AD154
:1012600000F042FAC0680168405CD4E9012190476F
:10127000206A401C2062281EA5F10105DCDC07E085
:10128000D4E9012118F8010B9047206A401C206224
:10129000381EA7F10107F3DC2046FFF747FB0320C8
:1012A00011B041E610B5436913B1AFF3008001E01E
:1012B000FFF712FC012010BD128800F12401828486
:1012C0000022C2840122EDE711684FF0FF32E9E706
:1012D0002DE9F34F4FF0000A0C4656468DB0012021
:1012E0000C9001F10C000B9062690B980121904762
:1012F000051E2DD0252D2CD0216A8847C0B16269EA
:101300000B9801219047216A88470028F7D162692C
:10131000411E0B98904700E0761CA1690D98884704
:10132000216A88470028F7D1E1690D988847DBE7F3
:10133000A1690D988847A842074601D1761CD3E7DA
:10134000E1690D9888477F1C02D1BAF1000F6FD078
:101350006BE162690B9800273D46394690472A2881
:1013600004D162690B98012190470125DFF8D082F2
:1013700062690B9801219047A0F130010A290AD235
:101380004745E5DC07EB870100EB4107303FDFD441
:1013900045F01005ECE7E90601D46FF000476C2832
:1013A0000AD04C2814D0682815D06A280DD074288B
:1013B0001CD07A281AD01DE062690B980121904751
:1013C0006C2802D045F0040514E045F002050DE05C
:1013D00045F020050AE062690B98012190476828D2
:1013E00002D045F0080505E045F4006562690B98F8
:1013F00001219047C4E9015765283DD019DC5828E0
:101400007AD00CDC452837D004DC252826D04128AA
:101410009ED131E046282FD0472899D12CE05B2877
:1014200077D0612828D063287CD0642823D15AE063
:10143000F6E06F2848D008DC66281DD067281BD04E
:10144000692821D06E2816D127E0702845D073284E
:1014500068D0752847D078280DD14DE0A1690D9846
:101460008847252805463FF469AFE1690D9888470C
:101470006D1C3FF46AAFD8E00D9923466A466FF0C1
:101480000100AFF30080C5E045F0400023464FF077
:1014900000026060A80736D43EE0E8077FF447AF5B
:1014A0002068011D21600068290501D506701BE731
:1014B000290701D5068017E7A90703D5F117C0E969
:1014C000006111E706600FE745F0400023464FF04A
:1014D00008026060A80716D41EE040F60E0125EA57
:1014E0000100606016E045F0400023464FF00A021C
:1014F0006060A80707D40FE045F040006060A807CF
:1015000008D5234610220D996FF00100AFF300803B
:1015100080E007E0102223460D996FF00100FFF7ED
:1015200011F877E04FF0000963284F46C8464B4654
:10153000CB4602D05B2806D038E0E80601D4012073
:10154000A060012732E06269D4F80CB00B98012149
:1015500090475E2807D14FF0010949466269D4F8E7
:101560000CB00B989047216939B900210A4603ABAA
:1015700043F82120491C0829FADBD8B3216949B373
:1015800008F1010862690B98012190475D28F4D1A8
:10159000B9F1000F09D0002003A951F82020D2434F
:1015A00041F82020401C0828F7DB03AB2069002805
:1015B00020794FEA40701ED05B462246CDF800806D
:1015C000CDE901970D9900286FF0010020DAAFF303
:1015D00000801FE0C11703AA00EBD1614B1121F07D
:1015E0001F0102EB8302411A136801208840034364
:1015F0001360C7E719E00D99224600286FF001003B
:10160000009702DAAFF3008004E0AFF3008001E05E
:10161000AFF3008000280ADA401C06D10C9820B1F4
:101620004FF0FF300FB0BDE8F08F5046FAE7E90702
:1016300001D10AF1010A064400200C9054E6000092
:10164000CCCCCC0C007B00F08000704770B5164607
:101650000C46054600F040F8036893F801010128A4
:1016600006D0FF2C0FD8185D68B101202C7070BD1A
:10167000D3F807013246214603F2071303442846F4
:10168000BDE8704018474FF0FF3070BD754600F060
:10169000EBF8AE4605006946534620F00700854644
:1016A00018B020B5FEF7D4FDBDE820404FF000068D
:1016B0004FF000074FF000084FF0000B21F007013A
:1016C000AC46ACE8C009ACE8C009ACE8C009ACE87D
:1016D000C0098D467047000010B500F005F8001DE8
:1016E00010BD00BF713F0000004870475009002046
:1016F0002DE9F0411F46044603260168072A01F43C
:10170000006004DB08B116A505E016A503E008B1EA
:1017100015A500E015A521F010002060A069C01EED
:10172000A0610FB1401EA0612046FFF7E9F84FB15C
:10173000D4E9012138469047206A401C2062C01C31
:10174000206206E0206AFAE7D4E9012115F8010BCE
:101750009047761EF8D22046FFF7E8F8BDE8F08102
:101760004E414E006E616E00494E4600696E660045
:101770002DE9F047814616468AB0354878440DC8B1
:101780008DE80D0032487844801C03AC0DC884E815
:101790000D0041F69B300844372190FBF1F290FB9D
:1017A000F1F5A5F1800501FB12041B3C02D5644252
:1017B000012000E00020DFF898A080460027FA44CE
:1017C000AAF1BE0A0EE0E0070AD03246684607EBEF
:1017D000470101230AEB810100F0DBFA8DE80700E5
:1017E00064107F1C002CEED1194F7F44AE3F19E0EE
:1017F000E80715D007EB04100DF1180A90E80E0069
:101800008AE80E00C068F04201D19819089032466B
:10181000012306A903A800F0BCFA03AB83E8070084
:101820006D10641C002DE3D14FF001033246694670
:10183000B8F1000F03A802D000F096FA01E000F022
:10184000A8FAC9E90001C9F808200AB0BDE8F08784
:101850006C87000010B50446AFF300802046BDE859
:101860001040FEF7E0BC000000487047300900203F
:101870005FEA400C08BF91F0000F4FEA8C234FEA5B
:10188000C12243EA51514FEA1C5018BF00F5F04005
:101890004FEA300018BF41F000415FEA6C5C00F095
:1018A0002980BCF1FF3F08BF40F080407047130C17
:1018B00006BF12044FF0100C4FF0000C130E04BFC3
:1018C00012020CF1080C130F04BF12010CF1040CEE
:1018D000930F04BF92000CF1020CD30F04BF52000F
:1018E0000CF1010C11464FF00002A0F11F00A0EB1B
:1018F0000C00704711F0004F08BF704731F00041F5
:101900003FF4D5AF0B0C06BF09044FF0100C4FF09D
:10191000000C0B0E04BF09020CF1080C0B0F04BFE6
:1019200009010CF1040C8B0F04BF89000CF1020CAF
:10193000CB0F04BF49000CF1010CCCF12003A0EB4C
:101940000C0022FA03F302FA0CF241EA030100F15F
:101950000100704720F07F4C80EA030023F07F47AE
:10196000ACEB070303F57C5300F0004003F1FF03E9
:101970002DE980494FEA154B09B44FEA144325EA93
:101980000B4E24EA03480FF2042606EB13274908FE
:101990003E785FEA320203FB0667C7F5000707FBE4
:1019A00006F64FEA54374FEAD64606F1020607FB21
:1019B000066CCCF1005C4FEA1C472CEA074C07FB95
:1019C00006F40CFB06F504EB15464FEA961634BFF9
:1019D00000204FF000404FEAD13706FB07FC4FEAEA
:1019E0001C4C0CFB0BF7D21B03FB0CF761EB070144
:1019F0000CFB0EF7B0EB074072EB17420CFB08F73D
:101A000034BFA2EB0742B2EB074261EB17414FEA4A
:101A10000C444FEA910706FB07FC4FEA1C4C0CFBF9
:101A20000BF7B0EBC74072EB573203FB0CF734BF38
:101A3000A2EBC742B2EBC74261EB57310CFB0EF78A
:101A4000B0EBC70072EB57720CFB08F734BFA2EB88
:101A5000C702B2EBC70261EB5771039F4FEA816186
:101A600041EA921104EBCC044FEAD1374FEA82628B
:101A700006FB07FC42EA90124FEA80604FEA1C4CDA
:101A80000CFB0BF7D21B03FB0CF761EB07010CFB04
:101A90000EF7B0EB074072EB17420CFB08F734BFB0
:101AA000A2EB0742B2EB074261EB17414FEA8C55BC
:101AB0004FEA910704EB9C2406FB07FC4FEA1C4C01
:101AC0000CFB0BF7B0EBC74072EB573203FB0CF784
:101AD00034BFA2EBC742B2EBC74261EB57310CFBFC
:101AE0000EF7B0EBC70072EB57720CFB08F734BF70
:101AF000A2EBC702B2EBC70261EB577115EB4C25A5
:101B00004FEA816141EA92114FEA82624FEAD1378E
:101B100042EA901206FB07FC44F100044FEA8060A1
:101B20004FEA1C4C0CFB0BF7D21B03FB0CF761EBD1
:101B300007010CFB0EF7B0EB074072EB17420CFBF2
:101B400008F734BFA2EB0742B2EB074261EB174143
:101B500015EB1C154FEA813141EA92414FEA82327E
:101B600042EA90424FEA80304FEA0C7644F100049A
:101B700048EA03434EEA0B484FF0000EB2EB080C64
:101B800071EB030724BF624639464EEB0E0E4FF051
:101B9000000B0018524149414BEB0B0BB2EB080C08
:101BA00071EB03077BF1000B24BF624639464EEB15
:101BB0000E0E4FF0000B0018524149414BEB0B0B3E
:101BC000B2EB080C71EB03077BF1000B24BF6246FC
:101BD00039464EEB0E0E51EA020718BF46F00106D9
:101BE00016EB0E7655F1000254F1000103D5BDE865
:101BF0008901BDE80088BDE88901BDE80048B61943
:101C0000524141EB0101A3F10103704780807F7EC7
:101C10007D7C7B7A79787776767574737271717062
:101C20006F6E6E6D6C6C6B6A6A6968686766666514
:101C30006464636362616160605F5F5E5E5D5D5CA2
:101C40005C5B5B5A5A595958585757565655555513
:101C50005454535352525251515050504F4F4F4E73
:101C60004E4D4D4D4C4C4C4B4B4B4A4A4A494949C1
:101C70004848484747474746464645454544444403
:101C8000444343434342424242414141002B9C462C
:101C900030D477002BD01CB54FEA370703B44FF090
:101CA00010004FF01001BAF1000F06D0BCF1000F88
:101CB000DCBF40F0080040F008014FF000000FBC0E
:101CC000BDE810400BF1010BBBF1010F08BF5FEA4B
:101CD000170722BF12F1010211F101014FF000417B
:101CE00043F1000300F0004043EA00007047F9D3DD
:101CF0005708D0E746EA064613F1400F4FEA16466A
:101D00001FDD13F1200FDFBF16430A4600212033E9
:101D10005B42BED0C3F1200746EA064602FA07F747
:101D20004FEA164646EA0706C3F1200722FA03F2F5
:101D300001FA07F721FA03F14FF0000342EA070224
:101D4000A7E746EA020646EA06464FEA164646EA8C
:101D50000106BCBF46EA0646360C4FF000034FF0C2
:101D600000024FF0000194E72DE9804C9A4693461B
:101D700070B491E8380007C831EA400C48BF34EA33
:101D8000430C03D5FFF7E6FDFFF780FFF0BCBDE88D
:101D9000008C2DE9804C9A46934670B491E8380047
:101DA00007C810F0804F08BF13F0804F03D100F038
:101DB00005F8FFF76BFFF0BCBDE8008C20F07F4713
:101DC00080EA030023F07F4C07EB0C03A3F57C5360
:101DD00000F00040A3F1FE0392F0000F00F0B3808A
:101DE00095F0000F00F077802DE901494FEA11408E
:101DF0004FEA144621EA004800FB06FC24EA0647A5
:101E000008FB06F607FB08F800FB07F718EB064887
:101E10004CEB164C4FEA124B18EB07484FEA1546AD
:101E20004CEB174022EA0B4E0BFB06FC25EA06475B
:101E30000EFB06F607FB0EFE0BFB07F71EEB064E2E
:101E40004CEB164C4FF000061EEB074E4CEB174BBD
:101E500018EB0B0840F1000018EB0E0B58EB0008D4
:101E600040F100008F1A4FF000013CBFC943661BD0
:101E700014BFB5EB040C00213CBFC943F61B4FEA6D
:101E800017444EEA8E0E27EA04454FEA1C4704FB2E
:101E900007622CEA074C05FB07F70CFB05F604FB71
:101EA0000CFC16EB074642EB174216EB0C4642EBD6
:101EB0001C421BEB060658EB0202414146EA9E0615
:101EC00001D5BDE80189B619524141EB0101A3F1E9
:101ED0000103BDE801894FEA14454FEA114724EA9E
:101EE000054621EA074C05FB07F406FB07F70CFB48
:101EF00006F105FB0CFC11EB074144EB17444FEADC
:101F0000124711EB0C4144EB1C4422EA074C05FB41
:101F100007F206FB07F70CFB06F605FB0CFC16EBBD
:101F2000074642EB174216EB0C4642EB1C456A187B
:101F300054F1000148BF7047B619524141EB01010D
:101F4000A3F10103704795F0000F37D04FEA11421B
:101F50004FEA144721EA024624EA074C02FB07F144
:101F600006FB07F70CFB06F402FB0CFC14EB074422
:101F700041EB17414FEA154714EB0C4441EB1C4170
:101F800025EA074C02FB07F506FB07F70CFB06F6F4
:101F900002FB0CFC16EB074645EB174516EB0C460F
:101FA00045EB1C42121951F1000148BF7047B619A8
:101FB000524141EB0101A3F1010370474FEA14457F
:101FC0004FEA114724EA054621EA074C05FB07F1D1
:101FD00006FB07F70CFB06F24FF0000605FB0CFCB6
:101FE00012EB074241EB174112EB0C4251EB1C4143
:101FF00048BF7047921841EB0101A3F101037047FC
:1020000008B508208DF8000000208DF801006B460F
:102010000222BE21382001F07DFE08BD70B50324E8
:1020200003251AE00325282002F08AFE07E00A2093
:1020300002F086FEFFF7E4FFC82002F081FE00F008
:102040001FF818B9681EC0B2051EF0D105B108E02E
:1020500000F063F8C82002F073FE601EC0B2041ED8
:10206000E0D100BF24B1C82002F06AFE002070BD9C
:102070000120FCE710B500F046F80446E00910BD69
:1020800010B500F040F80446C4F3C00010BD7CB5A4
:1020900005460426002400F048F800BF4B2002F05B
:1020A0004FFEFFF7E7FF18B1701EC0B2061EF5D154
:1020B0003EB3052002F044FE6B4606220021382084
:1020C00001F0EEFD00249DF80100204304029DF87C
:1020D0000200204304029DF80300044324092C60FD
:1020E00000249DF80300204304029DF804002043CF
:1020F00004029DF805000443C4F313046C6000203F
:102100007CBD0120FCE708B56B4601220021382088
:1021100001F0C6FD9DF8000008BD08B56B46002221
:10212000BA21382001F0F6FD08BD08B533208DF83E
:10213000000000208DF801006B460222AC213820FF
:1021400001F0E8FD08BD10B5012001F06FFA002094
:1021500001F06CFA10BD000008B5014600200090A7
:10216000034800900098084400900098008808BD3B
:10217000006C004008B500220092044A0092009AC8
:1021800002440092009A116008BD0000006C0040FB
:1021900000BFFEE770472DE9F0410246002500260A
:1021A000002000230024002791F803C00CF00F0545
:1021B00091F803C00CF0100CBCF1000F03D091F8A3
:1021C00002C04CEA050591F800C0BCF1000F31D007
:1021D000146800202BE04FF0010C0CFA00F3B1F86A
:1021E00000C00CEA03069E4220D183004FF00F0C82
:1021F0000CFA03F7BC4305FA03FC4CEA040491F81B
:1022000003C0BCF1280F06D14FF0010C0CFA00FC02
:10221000C2F814C00AE091F803C0BCF1480F05D120
:102220004FF0010C0CFA00FCC2F810C0401C08284A
:10223000D1D31460B1F800C0BCF1FF0F34DD546895
:1022400000202EE000F1080C4FF0010808FA0CF312
:10225000B1F800C00CEA03069E4221D183004FF082
:102260000F0C0CFA03F7BC4305FA03FC4CEA040418
:1022700091F803C0BCF1280F05D100F1080C08FA51
:102280000CF8C2F8148091F803C0BCF1480F07D1D4
:1022900000F1080C4FF0010808FA0CF8C2F81080A1
:1022A000401C0828CED35460BDE8F08102460020CF
:1022B00093680B400BB1012000E0002070474161A2
:1022C00070470161704700BFFEE7000010B50020B5
:1022D0000F4908600F48006820F0F0000D490860C1
:1022E0000846006840F03000086000200A49C1F844
:1022F000A401022002F04AFD0120054908600220E5
:1023000002F044FD00200449C1F8A00110BD000006
:10231000A0812142040C01400080214208B5012126
:10232000082001F063F94FF44070ADF8000014206C
:102330008DF8030003208DF8020069460448FFF77A
:102340002AFF4FF440710248FFF7BBFF08BD0000B1
:10235000000C014010B500200F4908600F480068CC
:1023600020F0F0000D4908600846006840F0300099
:10237000086001200A49C1F8A401022002F006FD0C
:10238000012005490860022002F000FD00200449F8
:10239000C1F8A00110BD0000A0812142040C014041
:1023A0000080214270B5054600241748006820F0DF
:1023B000F000154908600846006840F08000086099
:1023C000002616E0002011490860022002F0DEFC21
:1023D00001200F49C1F8A0016006040E0B487C38AB
:1023E000006808B1601CC4B2012002F0CFFC701C70
:1023F000C6B2082EE6DB15B9FFF7ACFF01E0FFF728
:1024000065FF204670BD0000040C0140A081214200
:102410000080214270B504461548006820F0F000A5
:10242000134908600846006840F03000086000204A
:1024300010490860002517E0E0090E49091D0860F1
:102440006006040E022002F0A1FC01200A49C1F836
:10245000A001022002F09AFC002006490860022038
:1024600002F094FC681CC5B2082DE5DB70BD0000CD
:10247000040C0140A08121420080214210B50F4888
:10248000006820F0F0000D4908600846006840F040
:102490003000086001200A4908600A49C1F8A0011B
:1024A000042002F073FC002005490860042002F0BB
:1024B0006DFC00200349C1F8A00110BD040C0140CF
:1024C000A48121420080214210B50D48006820F00F
:1024D000F0000B4908600846006840F030000860D2
:1024E000002008490860042002F050FC0120064941
:1024F000C1F8A00103490860042002F047FC10BDA8
:10250000040C0140A48121420080214210B5002426
:102510001448006820F0F00012490860084600687E
:1025200040F08000086001200F49086002F02EFC96
:1025300001200E49C1F8A00102F028FC07E0601C50
:10254000C4B2FA2C03DDFFF7BFFF012010BD06481F
:10255000803800680028F2D10349091F086000BFD5
:10256000F4E70000040C0140A481214200802142D4
:102570001CB54FF4A06001F007F802F0BFFB00F0BB
:102580009BFF00F081F800F0FFF84FF4E13002F01B
:10259000A7FD4FF4165002F051FD4FF4E13002F068
:1025A000EFFD382037210F230522CDE9001002214D
:1025B00040F2E77001F0EAF948F230408023A022AF
:1025C00000210090084600F0A0F8FFF7A7FE0120C8
:1025D0001349086000201349086000F0F9FD00204D
:1025E0001149C1F884014FF47A7002F0A9FB01206F
:1025F0000B49086000210D4801F035FF42F21071CF
:102600004FF4616001F0F8FE00214FF0804001F0CE
:102610002AFF42F210714FF4616001F03BFE1CBDD5
:10262000848121421C0000200080214200080040DB
:102630000146CA1701EB92729210A1EB820292B985
:10264000642091FBF0F200FB121050B94FF4C870F7
:1026500091FBF0F200FB121008B901207047002036
:10266000FCE70120FAE70020F8E710B5012002F0AE
:10267000C1FB04463CB1012C04D10121800701F0CB
:10268000F2FE00BF00BF10BD08B50121482000F0D8
:10269000ADFF48208DF803002020ADF80000032096
:1026A0008DF8020069460248FFF775FD08BD00007D
:1026B000000C01402DE9F04107460C4615461E4628
:1026C0002A2000F04BFD384600F038FD284600F087
:1026D00035FD2B2000F042FD204600F02FFD304656
:1026E00000F02CFD2C2000F039FDBDE8F08170B524
:1026F00004460D4616462B46224629462046FFF73D
:10270000D9FF304600F01AFD70BD2DE9F0470646AE
:102710000F4614461D46DDF820A0681E83B2601ED9
:1027200082B239463046FFF7C5FFB8460EE0B146E3
:1027300006E0504600F002FD09F101001FFA80F9A1
:10274000A145F6DB08F101001FFA80F8A845EEDB91
:10275000BDE8F08708B50121042000F047FFF32011
:10276000ADF8000010208DF8030003208DF8020062
:1027700069460448FFF70FFDF3210248FFF7A1FD6A
:1027800008BD00000008014010B5FFF7E3FF40213D
:102790007A48FFF794FD642002F0D2FA402177488E
:1027A000FFF78FFD642002F0CBFA20217348FFF77A
:1027B00088FD642002F0C4FA112000F0CFFC7820DC
:1027C00002F0BEFAB12000F0C9FC052000F0BFFC09
:1027D0003C2000F0BCFC3C2000F0B9FCB22000F032
:1027E000BDFC052000F0B3FC3C2000F0B0FC3C2018
:1027F00000F0ADFCB32000F0B1FC052000F0A7FC18
:102800003C2000F0A4FC3C2000F0A1FC052000F0DE
:102810009EFC3C2000F09BFC3C2000F098FCB42087
:1028200000F09CFC032000F092FCC02000F096FC1D
:10283000282000F08CFC082000F089FC042000F027
:1028400086FCC12000F08AFCC02000F080FCC22081
:1028500000F084FC0D2000F07AFC002000F077FCF2
:10286000C32000F07BFC8D2000F071FC2A2000F0DA
:102870006EFCC42000F072FC8D2000F068FCEE209D
:1028800000F065FCC52000F069FC1A2000F05FFC38
:10289000362000F063FC702000F059FCE02000F0CE
:1028A0005DFC042000F053FC222000F050FC0720C7
:1028B00000F04DFC0A2000F04AFC2E2000F047FCFE
:1028C000302000F044FC252000F041FC2A2000F0DC
:1028D0003EFC282000F03BFC262000F038FC2E2097
:1028E00000F035FC3A2000F032FC002000F02FFC14
:1028F000012000F02CFC032000F029FC132000F044
:1029000026FCE12000F02AFC042000F020FC162028
:1029100000F01DFC062000F01AFC0D2000F017FC52
:102920002D2000F014FC262000F011FC232000F0E4
:102930000EFC272000F00BFC272000F008FC2520CF
:1029400000F005FC2D2000F002FC3B2000F0FFFB16
:10295000002000F0FCFB012000F0F9FB042000F057
:10296000F6FB132000F0F3FB3A2000F0F7FB052004
:1029700000F0EDFB292000F0F1FB10BD0008014044
:102980002DE9FF5F80468A4617469B460F9D002033
:102990000290CDF80080284605EBD071C1F34704C2
:1029A0002046E21704EB5272D2102146E31704EBE3
:1029B0005373DB10A4EBC3030BB1012300E000232E
:1029C0001A446A4392B20192A7F12000C7B20AEBFF
:1029D0000500401E83B208EB0400401E82B251463F
:1029E0004046FFF767FE002669E00C2D07D107EB94
:1029F0004700354901EB8000805D03901BE0102DFE
:102A000005D1324800EB0710805D039013E0182DCC
:102A100007D107EB47002E4901EB0010805D0390C2
:102A200009E0202D05D12B4800EB8710805D039035
:102A300001E0BDE8FF9F4FF000093AE01098C8B9E7
:102A4000012000FA09F00399084018B1584600F037
:102A500075FB02E00E9800F071FB0298401CC0B2BA
:102A60000290029890FBF4F104FB1100E8B90020F9
:102A7000029021E0012000FA09F00399084020B1FA
:102A80005A4651464046FFF732FE08F101001FFA50
:102A900080F80098A8EB0000A04206D1DDF8008085
:102AA0000AF101001FFA80FA06E009F1010000F0C6
:102AB000FF09B9F1080FC1DB00BF701C86B2019895
:102AC000864292DB00BFB4E7986000080C650008FE
:102AD000FC6A0008CC7C00082DE9FE4F8046894640
:102AE00017469A46DDE90D460C9D36E00C2C09D1BF
:102AF00053463A4649464046CDE90146009500F026
:102B000031F825E0102C09D153463A464946404653
:102B1000CDE90146009500F0C9F819E0182C09D15B
:102B200053463A4649464046CDE90146009500F0F5
:102B300059F90DE0202C09D153463A464946404602
:102B4000CDE90146009500F0F1F901E0BDE8FE8F06
:102B5000BF1C08EB04001FFA80F838780028C5D1A4
:102B600000BFF3E72DE9FF5F0646894692469B4684
:102B70000F9C0020039000962046E21704EB52724F
:102B8000D2102146E31704EB5373DB10A4EBC3030D
:102B90000BB1012300E000231A44624392B2019278
:102BA00005200290002579E005EB850000EBC500CB
:102BB0003D4911F810009AF8001088426BD105EBDE
:102BC000850000EBC500384901EB400040789AF8D9
:102BD000011088425FD109EB0400401E83B2301916
:102BE000401E82B249463046FFF764FD00274FE0A1
:102BF0004FF0000846E0109808BB05EB850000EB9D
:102C0000C500294901EB4000801CC05D012101FA8B
:102C100008F1084018B1584600F090FA02E00E980A
:102C200000F08CFA0398401CC0B20390039890FB0C
:102C3000F4F104FB110008BB0020039025E005EB34
:102C4000850000EBC500184901EB4000801CC05D09
:102C5000012101FA08F1084020B15A4649463046A0
:102C6000FFF745FD701C86B20098301AA04205D1CE
:102C7000009E09F101001FFA80F906E008F1010049
:102C800000F0FF08B8F1080FB5DB00BF781CC7B231
:102C900001988742ACDB00BF681C85B20298854270
:102CA00082DBBDE8FF9F00008C9400082DE9FF5FE8
:102CB0000646894692469B460F9C0020039000964C
:102CC0002046E21704EB5272D2102146E31704EBC0
:102CD0005373DB10A4EBC3030BB1012300E000230B
:102CE0001A44624392B2019226200290002571E0BC
:102CF00005EB05103A4911F810009AF800108842C7
:102D000065D105EB0510364901EB400040789AF893
:102D1000011088425BD109EB0400401E83B23019D8
:102D2000401E82B249463046FFF7C4FC00274BE004
:102D30004FF0000842E01098F8B905EB051028495B
:102D400001EB4000801CC05D012101FA08F1084040
:102D500018B1584600F0F2F902E00E9800F0EEF9D2
:102D60000398401CC0B20390039890FBF4F104FB5D
:102D70001100F8B90020039023E005EB0510184975
:102D800001EB4000801CC05D012101FA08F1084000
:102D900020B15A4649463046FFF7A9FC701C86B25E
:102DA0000098301AA04205D1009E09F101001FFAD7
:102DB00080F906E008F1010000F0FF08B8F1080F03
:102DC000B9DB00BF781CC7B201988742B0DB00BFF7
:102DD000681C85B2029885428ADBBDE8FF9F00002F
:102DE0000E9500082DE9FF5F0646894692469B46F0
:102DF0000F9C0020039000962046E21704EB5272CD
:102E0000D2102146E31704EB5373DB10A4EBC3038A
:102E10000BB1012300E000231A44624392B20192F5
:102E200005200290002579E005EB850000EB4510B8
:102E30003D4911F810009AF8001088426BD105EB5B
:102E4000850000EB4510384901EB400040789AF8C6
:102E5000011088425FD109EB0400401E83B2301993
:102E6000401E82B249463046FFF724FC00274FE05F
:102E70004FF0000846E0109808BB05EB850000EB1A
:102E80004510294901EB4000801CC05D012101FA79
:102E900008F1084018B1584600F050F902E00E98C9
:102EA00000F04CF90398401CC0B20390039890FBCB
:102EB000F4F104FB110008BB0020039025E005EBB2
:102EC000850000EB4510184901EB4000801CC05DF7
:102ED000012101FA08F1084020B15A46494630461E
:102EE000FFF705FC701C86B20098301AA04205D18D
:102EF000009E09F101001FFA80F906E008F10100C7
:102F000000F0FF08B8F1080FB5DB00BF781CC7B2AE
:102F100001988742ACDB00BF681C85B202988542ED
:102F200082DBBDE8FF9F00001A9A00082DE9FF5FD1
:102F30000646894692469B460F9C002003900096C9
:102F40002046E21704EB5272D2102146E31704EB3D
:102F50005373DB10A4EBC3030BB1012300E0002388
:102F60001A44624392B2019205200290002571E05A
:102F700005EB85103A4911F810009AF800108842C4
:102F800065D105EB8510364901EB400040789AF891
:102F9000011088425BD109EB0400401E83B2301956
:102FA000401E82B249463046FFF784FB00274BE0C3
:102FB0004FF0000842E01098F8B905EB8510284959
:102FC00001EB4000801CC05D012101FA08F10840BE
:102FD00018B1584600F0B2F802E00E9800F0AEF8D2
:102FE0000398401CC0B20390039890FBF4F104FBDB
:102FF0001100F8B90020039023E005EB8510184973
:1030000001EB4000801CC05D012101FA08F108407D
:1030100020B15A4649463046FFF769FB701C86B21C
:103020000098301AA04205D1009E09F101001FFA54
:1030300080F906E008F1010000F0FF08B8F1080F80
:10304000B9DB00BF781CC7B201988742B0DB00BF74
:10305000681C85B2029885428ADBBDE8FF9F0000AC
:103060008C9B00082DE9FF4F85B0074691461D4611
:10307000DDE913A600200490304606EBD071C1F3C1
:10308000470B002434E0281B401EC1B20A2001F087
:103090007BFFB9FBF0F00A21B0FBF1F201FB120853
:1030A0000498A0B9681EA04211DDB8F1000F0CD140
:1030B000002004FB0B71CDE900A6029088B23022FB
:1030C000129B0699FFF75CFC10E0012004900020A1
:1030D00008F13001CAB204FB0B71CDE900A60290E1
:1030E00088B2129B0699FFF74BFC00BF601CC4B26C
:1030F000AC42C8DB09B0BDE8F08F2DE9FE4F0646B3
:103100000F4614469846DDE90D5ADDF8309010E080
:10311000CDE9015ACDF80090227843463946304631
:10312000FFF72EFC284605EBD07106EB61018EB24D
:10313000641C20780028EBD1BDE8FE8F10B5044652
:10314000201200F01BF8E0B200F018F810BD10B526
:103150000446204600F012F810BD000010B50446E9
:1031600080210548FFF7ABF8204600F007F88021E2
:103170000148FFF7A6F810BD0008014070B50446ED
:1031800010211248FFF79BF8002517E001210F4896
:10319000FFF795F804F0800020B102210B48FFF7FB
:1031A00090F803E002210948FFF789F80121074858
:1031B000FFF787F86006040E681CC5B2082DE5DB32
:1031C00010210248FFF77DF870BD000000080140A3
:1031D0000EB50120102148F230420023CDE9002134
:1031E00002909BA21946FFF788FF0120102148F2A8
:1031F00030420023CDE90021029098A219465920BF
:10320000FFF77BFF48F230402423802212210090F8
:103210000020FFF77AFA0120102148F23042002303
:10322000CDE9002102908F4A12211846FFF754FC85
:103230000120102148F230420023CDE90021029004
:10324000894A12217020FFF747FC0120102148F223
:1032500030420023CDE90021029084A224211846A7
:10326000FFF73AFC0120102148F230420023CDE95B
:103270000021029081A224217020FFF72DFC012063
:10328000102148F230420023CDE9002102907CA2B7
:1032900024214020FFF731FF48F2304036237022CE
:1032A000242100904820FFF730FA0120102148F235
:1032B00030420023CDE900210290724A24214820A7
:1032C000FFF71BFF48F23040482380223621009050
:1032D0000020FFF71AFA0120102148F230420023A3
:1032E000CDE900210290684A36211846FFF7F4FB29
:1032F0000120102148F230420023CDE90021029044
:1033000062A248211846FFF7E7FB0120102148F28E
:1033100030420023CDE90021029059A2482120200B
:10332000FFF7EBFE0120102148F230420023CDE9E7
:103330000021029057A248212820FFF7CDFB012051
:10334000102148F230420023CDE90021029053A21F
:1033500048215820FFF7D1FE0120102148F23042C9
:103360000023CDE9002102904AA248216020FFF706
:10337000B3FB48F230405A2380224821009060205D
:10338000FFF7C3F90120102148F230420023CDE9B4
:1033900000210290424A48216820FFF7AEFE01203A
:1033A000102148F230420023CDE9002102903DA2D5
:1033B0005A211846FFF790FB0120102148F23042B5
:1033C0000023CDE9002102902DA25A212020FFF7F1
:1033D00094FE0120102148F230420023CDE9002163
:1033E000029032A25A212820FFF787FE01201021E7
:1033F00048F230420023CDE90021029027A25A2151
:103400005020FFF77AFE0120102148F230420023BD
:10341000CDE90021029025A25A216020FFF76DFE20
:1034200048F230406C2380225A2100906020FFF740
:103430006CF90120102148F230420023CDE900212F
:1034400002901C4A5A216820FFF757FE0EBD00006B
:10345000202020202D20202D2020000020203A2078
:10346000203A00004402002012020020BDF1C8D51D
:10347000CCECC6F82020202020000000A1E60000AF
:103480003A0000003E030020A8020020CEC2B6C8C9
:103490000000000020202020A1E600002F000000F6
:1034A00076020020CAAAB6C8000000002020202012
:1034B000250000007003002008B50121082000F05D
:1034C00095F80220ADF8000010208DF803000320CD
:1034D0008DF8020069460D48FEF75DFE01210820C7
:1034E00000F084F84FF40050ADF8000010208DF883
:1034F000030003208DF8020069460448FEF74BFEE6
:103500004FF400510148FEF7DCFE08BD000C0140FD
:1035100000BFFEE77047000070B5002100230F22B6
:10352000C47804B3154C246804F4E064C4F5E06482
:10353000210AC1F10403CA40447804FA03F18478F3
:103540001440214309010E4C0678A155047804F07B
:103550001F050124AC4005786D11AD0005F1E02593
:10356000C5F8004109E0047804F01F050124AC40CF
:10357000044D0678761145F8264070BD0CED00E04C
:1035800000E400E080E100E002490143024A1160EA
:10359000704700000000FA050CED00E001490862E8
:1035A0007047000000000E427047000029B1064A33
:1035B000D2690243044BDA6104E0034AD2698243D0
:1035C000014BDA61704700000010024029B1064A41
:1035D00012690243044B1A6104E0034A12698243F0
:1035E000014B1A61704700000010024029B1064AE1
:1035F00092690243044B9A6104E0034A9269824350
:10360000014B9A61704700000010024029B1064A40
:10361000D2680243044BDA6004E0034AD268824372
:10362000014BDA6070470000001002400149086059
:10363000704700004004424230B5002100220024BF
:1036400000232D4D6D6805F00C0121B1042905D032
:10365000082923D105E0294D056022E0274D0560AA
:103660001FE0254D6D6805F47012234D6D6805F45B
:103670008034022505EB92421CB9214D554305606B
:103680000BE01D4D6D6805F400351DB11C4D554313
:10369000056002E0194D5543056002E0174D0560D5
:1036A00000BF00BF144D6D6805F0F0010909154D0C
:1036B0006B5C0568DD4045600F4D6D6805F4E061A9
:1036C000090A104D6B5C4568DD4085600A4D6D68E8
:1036D00005F46051C90A0B4D6B5C4568DD40C5605F
:1036E000054D6D6805F44041890B074D6B5CC5685D
:1036F000B5FBF3F5056130BD0010024000127A0001
:1037000000093D004E0000205E00002010B501467B
:103710000022002300204A11012A02D1094C23680B
:1037200006E0022A02D1074C236A01E0054C636AD5
:1037300001F01F02012494401C400CB1012000E064
:10374000002010BD0010024000210B4A11700A4AEF
:10375000203A82F82010012802D0042808D103E082
:103760000121054A117004E00521034A117000E0AF
:1037700000BF00BF704700002010024001490860F0
:10378000704700003C0442420249096A0143014A71
:103790001162704700100240024909888143014AC2
:1037A00011807047042800400348008840F0100052
:1037B0000149088070470000042800400348008841
:1037C0004FF6EF7108400149088070470428004017
:1037D0002DE9F041082700260024002500F094F888
:1037E00006464348B6FBF0F442480088A0423CD06D
:1037F00040490C8040F2B27510E02846FEF718FFF1
:1038000040B1B4F5B77F02D3A4F5B77404E0681CE7
:1038100085B206E0A4F26D14681C85B2B4F5B67FDB
:10382000EBD800BF34488580002516E032498888EF
:10383000FEF7FEFE30B1012D04D11D2C01D31D3C3D
:1038400009E00CE02D48405DA04203D82B48405DC4
:10385000241A00E003E0681C85B21C2CE6D200BFED
:10386000681C25498871601CC8712148B6FBF0F1BD
:1038700000FB11644FF46160B4FBF0F01E49087066
:103880004FF46160B4FBF0F100FB11403C21B0FB50
:10389000F1F0194948704FF46160B4FBF0F100FB9E
:1038A00011403C21B0FBF1F201FB1200124988707B
:1038B0000846407850B90846807838B90120104948
:1038C000887139460E4800F0D1FE0EE00A48407873
:1038D00058B909488078022807D107480078094973
:1038E00088713946074800F0C1FE0020BDE8F0812C
:1038F000805101003C000020C8060020229E0008E4
:103900002C00002024000020002103480188001F13
:10391000008841EA004070471C2800400146002012
:10392000064A12880A40D0B2044A121F12880A407E
:1039300012B108B1012000E00020704704280040C7
:1039400010B50120FFF7EAFF08B1FFF741FF0220A1
:10395000FFF7E4FF20B10220FFF71EFFFFF738FF5B
:103960000520FFF719FF00F009F910BD29B1064A3B
:1039700012880243044B1A8004E0034A12888243EF
:10398000014B1A8070470000002800402DE9FC47D9
:1039900005460E4617469846DDE90A9A002401219D
:1039A0004FF0C050FFF702FE0120FFF7F7FD0420A3
:1039B000FEF7D2FB45F2500188423ED0FEF7C3FB32
:1039C0000120FFF7C1FE04E0601CC4B20A2001F030
:1039D000B7F94120FFF79AFE08B9FA2CF4DBFA2C6C
:1039E00002DB0120BDE8FC874FF48070FFF7CCFEBE
:1039F0000120FFF7C3FE00F0C1F800F0C9F8012173
:103A00000846FFF7B3FF00F0B9F8FFF7CDFE47F621
:103A1000FF7000F0A3F800F0B1F843463A46314693
:103A20002846CDE9009A00F027F8FFF7C7FE45F2D7
:103A300050010420FEF79EFB07E000F0A9F80121E9
:103A40000846FFF793FF00F099F800F004F8FFF73D
:103A5000BFFE0020C6E708B503208DF80000002057
:103A60008DF8010001208DF802008DF803006846F2
:103A7000FFF752FD08BD00002DE9F05F06460F4636
:103A800090469946DDE90AAB002440F2B2708642C6
:103A900003DB40F63300864202DD0120BDE8F09FE3
:103AA00040F2B2750AE02846FEF7C2FD10B1204888
:103AB000044401E01F480444681C85B2B542F2DBAF
:103AC000781EC7B2002510E01B48405D40F2A321DC
:103AD000484304EBC0143046FEF7AAFD18B1012D8F
:103AE00001D116480444681C85B2BD42ECDBA8F144
:103AF000010040F2A321484304EBC014C9EB491074
:103B0000C0EB092004EB0014CAEB0A1004EB80049C
:103B10005C4401214FF0C050FFF748FD0120FFF742
:103B20003DFD204600F00CF800F028F80020B5E735
:103B30000085E2018033E101229E000880510100EE
:103B400000B50246FFF730FE100C03490880091D3E
:103B50000A80FFF733FE00BD1828004000B502467A
:103B6000FFF722FEC2F3034003490880091D0A80C3
:103B7000FFF724FE00BD00000828004000BF0348F6
:103B8000008800F020000028F9D070470428004089
:103B9000074800884FF6F77108400549088000BFC4
:103BA0000348008800F008000028F9D070470000A2
:103BB00004280040704710B500F002F810BD000066
:103BC0000CB50020019000903348006840F480302C
:103BD0003149086000BF3048006800F400300090B0
:103BE0000198401C0190009818B90198B0F5A06F99
:103BF000F1D12948006800F4003010B10120009094
:103C000001E0002000900098012843D1234800687B
:103C100040F01000214908600846006820F00300C9
:103C200008600846006840F0020008601A484068D2
:103C3000194948600846406848600846406840F4B2
:103C4000806048600846406820F47C104860084660
:103C5000406840F4E81048600846006840F0807012
:103C6000086000BF0C48006800F000700028F9D020
:103C70000948406820F0030007494860084640684A
:103C800040F00200486000BF0348406800F00C00AC
:103C90000828F9D10CBD00000010024000200240AD
:103CA0002DE9F04106460F4614461D46FEF7E6FB99
:103CB000002141EA4601C8B2FEF7ACFBFEF726FC44
:103CC00020B1FEF701FC0120BDE8F0813846FEF787
:103CD000A1FBFEF71BFCFEF7D1FB012101EB460126
:103CE000C8B2FEF797FBFEF711FC0DE0012C04D1E2
:103CF0000020FEF757FB287003E00120FEF752FB7F
:103D00002870601EC4B26D1C002CEFD1FEF7DCFBE6
:103D10000020D9E72DE9F04105460E4617469846A2
:103D2000FEF7ACFB002141EA4501C8B2FEF772FB89
:103D3000FEF7ECFB20B1FEF7C7FB0120BDE8F081E8
:103D40003046FEF767FBFEF7E1FB00240CE018F8B5
:103D50000400FEF75FFBFEF7D9FB18B1FEF7B4FBDA
:103D60000120EBE7601CC4B2BC42F0DBFEF7ACFB09
:103D70000020E3E72DE9FC478246DAF8040001F071
:103D8000B1FE80460022244B01F0C0FE0646002210
:103D9000224B01F04FFD044601F072FCCAF80C0002
:103DA000DAF8080001F09EFE064600221C4B01F0E6
:103DB000ADFE04460022194B01F03CFD8046002276
:103DC000184B01F0A1FFCDE9000101F059FCCAF840
:103DD00010000021DAF80C0002F02BF916D8124975
:103DE000DAF80C0002F0A6F810D81049DAF8100042
:103DF00002F01FF90AD80E49DAF8100002F09AF81A
:103E000004D800208AF80100BDE8FC8701208AF868
:103E1000010000BFF8E700000000594000003041F9
:103E200000006940000049400000C842000020C274
:103E30000000AA42042808D14FF0E021096941F0AE
:103E400004014FF0E022116107E04FF0E021096921
:103E500021F004014FF0E02211617047704700002B
:103E600010B51348006840F0010011490860084689
:103E70004068104908400E494860084600680E49ED
:103E800008400B4908600846006820F4802008605C
:103E90000846406820F4FE0048604FF41F00886028
:103EA000FFF789FE4FF000600449086010BD000074
:103EB000001002400000FFF8FFFFF6FE08ED00E0F2
:103EC00010B508240121880700F0D9FA00286ED027
:103ED000E0480078401CDF49087008460078022856
:103EE00007D10120DC4988712146DB4800F0BEFB88
:103EF000AAE1D8480078042808D1D8480078D849E1
:103F000088712146D64800F0B1FB9DE1D148007888
:103F1000062808D1D1484078D24988712146D14835
:103F200000F0A4FB90E1CB48007808280BD1CB48E7
:103F300040780028DCD00220C74988712146C64855
:103F400000F094FB80E1C34800780A2879D1C64884
:103F50000078002876D0C5A1C548FCF78DFC38BB99
:103F6000C4A1C148FCF788FC38B91120BA4988714E
:103F70002146B94800F07AFB66E1BFA1BA48FCF7D8
:103F80007BFC38B91220B44988712146B24800F050
:103F90006DFB59E1BAA1B448FCF76EFC48B9132097
:103FA000AD4988712146AC4800F060FB4CE14FE11F
:103FB0000DE0B5A1AC48FCF75FFC002898D11420B7
:103FC000A54988712146A44800F050FB3CE1A9A115
:103FD000A748FCF751FCB0BBA4A1A348FCF74CFCDC
:103FE00038B91B209C49887121469B4800F03EFB54
:103FF0002AE1A1A19C48FCF73FFC38B91C20964956
:1040000088712146944800F031FB1DE19CA196483F
:10401000FCF732FC38B91D208F49887121468E4843
:1040200000F024FB10E198A18F48FCF725FC002844
:1040300088D11E20884988712146874800F016FBE8
:1040400002E1F3E0B1E0FFE78BA18948FCF714FC43
:10405000A0BB86A18448FCF70FFC38B90C207E4930
:10406000887121467C4800F001FBEDE081A17E488B
:10407000FCF702FC38B90D20774988712146764853
:1040800000F0F4FAE0E07EA17748FCF7F5FB38B9E0
:104090000E207149887121466F4800F0E7FAD3E09D
:1040A00079A17148FCF7E8FB00288FD10F206A49FD
:1040B00088712146684800F0D9FAC5E0FFE770A191
:1040C0006B48FCF7D9FBA0BB68A16748FCF7D4FBA1
:1040D00038B916206049887121465F4800F0C6FA59
:1040E000B2E064A16048FCF7C7FB38B917205A4911
:1040F00088712146584800F0B9FAA5E05EA15A48F7
:10410000FCF7BAFB38B91820534988712146524848
:1041100000F0ACFA98E05CA15348FCF7ADFB002836
:104120008ED119204C49887121464B4800F09EFAE7
:104130008AE0FFE754A14E48FCF79EFB002894D18B
:104140004AA14948FCF798FB38B9062042498871D2
:104150002146414800F08AFA76E046A14248FCF741
:104160008BFB38B907203C49887121463A4800F05A
:104170007DFA69E040A13C48FCF77EFB38B9082095
:10418000354988712146344800F070FA5CE03CA162
:104190003548FCF771FB002856D109202E4988715B
:1041A00021462D4800F062FA4EE030A13048FCF77D
:1041B00063FB38B91020284988712146264800F051
:1041C00055FA41E02BA12A48FCF756FB38B91A20D2
:1041D000214988712146204800F048FA34E026A1A0
:1041E0002348FCF749FB38B90B201B49887121464D
:1041F000194800F03BFA27E021A11D48FCF73CFBE1
:1042000038B91520144988712146134800F02EFA58
:104210001AE01DA11648FCF72FFBA8B906200E498D
:10422000887121460C4800F021FA0DE00948007819
:104230000A2809DD00201649087006490870002187
:104240004FF0804000F00FF90121880700F008F9D5
:1042500010BD0000230000202C000020C806002014
:1042600024000020340000200C030020C7E70000D9
:10427000DA020020D2F50000B6E0D4C6000000004B
:10428000D0A1D3EA00000000B4F3D3EA000000009C
:10429000220000207FB505460C4601210846FFF7A5
:1042A00085F9681E80B2ADF80400601E80B2ADF8DA
:1042B00000000020ADF80600ADF8020069464FF09E
:1042C000804000F0F9F801221146900700F0E8F86C
:1042D0001C208DF80C0002208DF80D0003208DF8B5
:1042E0000E0001208DF80F0003A8FFF715F900213B
:1042F0004FF0804000F0B7F87FBD000010B50121FD
:10430000094800F0BCF868B10848008840F4004053
:10431000064908800121044800F0A2F80021024863
:1043200000F0A1F810BD00000004004014000020BF
:104330007FB505460C4601210220FFF737F9ADF89D
:104340000450ADF800400020ADF80600ADF80200C2
:1043500069460B4800F0B0F801221146084800F009
:104360009FF81D208DF80C0002208DF80D00012013
:104370008DF80E008DF80F0003A8FFF7CDF87FBD74
:104380000004004010B50121164800F078F840B351
:104390000121144800F064F8134800680A2820D16D
:1043A00012480078401C114908700846007801281E
:1043B00006D100200E4908600E49C1F8B40110E092
:1043C0000A48007801280CDD0120094908600949E4
:1043D000C1F8B4010020054908700021014800F02F
:1043E00042F810BD000800401C0000202100002001
:1043F00084812142008021427FB505460C4601217F
:104400000420FFF7D3F8681E80B2ADF80400601EE8
:1044100080B2ADF800000020ADF80600ADF8020053
:1044200069460E4800F048F8012211460B4800F09A
:1044300037F81E208DF80C0002208DF80D000320A7
:104440008DF80E0001208DF80F0003A8FFF764F827
:104450000021024800F007F87FBD0000000800407E
:10446000CA430282704721B1028842F001020280F1
:1044700004E002884FF6FE731A400280704730B5A0
:104480000246002000230024158A05EA01039589CD
:1044900005EA010413B10CB1012000E0002030BD99
:1044A0001AB183890B43838102E083898B43838123
:1044B0007047818470470000002202881D4B98429B
:1044C0000ED01D4B98420BD0B0F1804F08D01B4B43
:1044D000984205D01A4B984202D01A4B984204D108
:1044E0004FF68F731A404B881A43174B984207D0E8
:1044F000164B984204D04FF6FF431A40CB881A431C
:1045000002808B8883850B8803850A4B98420BD0E9
:10451000094B984208D00E4B984205D00D4B98425B
:1045200002D00D4B984201D10B7A0386012383827E
:1045300070470000002C014000340140000400409E
:1045400000080040000C0040001000400014004033
:1045500000400140004401400048014010B540F2D5
:1045600025511D4800F039F910B31B4800F0F0F94F
:10457000C4B21A48008800F40040C8B9174800883F
:1045800000F4804060B10A2C03D000201349088059
:1045900020E01248008840F400401049088019E0EB
:1045A0000D2C06D10D48008840F480400B4908804E
:1045B00010E00A480088C0F30D0009490C54074870
:1045C0000088401C0549088008460088C72801DD8E
:1045D0000020088010BD0000003801404C00002081
:1045E0006808002010B540F225511D4800F0F5F88C
:1045F00010B31B4800F0ACF9C4B21A48008800F4AC
:104600000040C8B91748008800F4804060B10A2C07
:1046100003D000201349088020E01248008840F4AD
:1046200000401049088019E00D2C06D10D48008883
:1046300040F480400B49088010E00A480088C0F32D
:104640000D0009490C5407480088401C05490880A2
:1046500008460088C72801DD0020088010BD000042
:10466000004400403E000020D806002070B50546FA
:104670000E4600240CE0295D074800F06EF900BFEB
:104680008021054800F09CF80028F9D0601C84B215
:10469000B442F0DB70BD00000044004010B540F2B1
:1046A0002551164800F099F800B3144800F050F96D
:1046B000C4B21348008800F40040B8B9104800881C
:1046C000B0F5C87F13DA00210E48FFF7F2FE0C4860
:1046D000008818B901210B48FFF7C5FE084801887A
:1046E0000088401C064A10800748445405E00448EE
:1046F000008840F400400249088010BD0048004096
:1047000014000020000400403805002021B18289F7
:1047100042F40052828104E082894DF6FF731A4010
:104720008281704710B504462048844209D1012196
:104730008803FEF76BFF00214FF48040FEF766FF11
:1047400032E01B48844209D101214804FEF73EFFB4
:1047500000214FF40030FEF739FF25E01548844270
:1047600009D101218804FEF731FF00214FF4802098
:10477000FEF72CFF18E01048844209D10121C8043B
:10478000FEF724FF00214FF40020FEF71FFF0BE08F
:104790000A48844208D101210805FEF717FF0021CD
:1047A0004FF48010FEF712FF10BD000000380140EA
:1047B0000044004000480040004C004000500040D1
:1047C00002460020B1F5007F00D100BF13880B40E6
:1047D0000BB1012000E00020704770B502460024B4
:1047E00000230025002040F66A16B14200D100BF28
:1047F000C1F3421501F01F03012606FA03F3012D50
:1048000002D19689334006E0022D02D1168A334048
:1048100001E0968A33400C12012606FA04F4168849
:10482000344013B10CB1012000E0002070BDF0B5A0
:104830000346002400260025002040F66A17B942EE
:1048400000D100BF1846C1F3421401F01F06012732
:1048500007FA06F5012C01D10C3004E0022C01D13D
:10486000103000E014301AB107682F43076002E0EF
:104870000768AF430760F0BD2DE9F04786B00546F5
:104880000E460024A24600BFA1460027B08900B111
:1048900000BF2F462C8A4CF6FF700440F08804437A
:1048A0002C82AC894EF6F3100440B088318908435D
:1048B000718908430443AC81AC8A4FF6FF40044041
:1048C000B0890443AC8201A8FEF7B6FE1F488742B8
:1048D00002D1DDF810A001E0DDF80CA0A88900F4F9
:1048E000004040B10AEBCA0000EB0A1031684900F1
:1048F000B0FBF1F807E00AEBCA0000EB0A103168E0
:104900008900B0FBF1F86420B8FBF0F00401200945
:10491000642101FB1089A88900F4004040B13220D5
:1049200000EBC900B0FBF1F000F00700044308E021
:10493000322000EB09106421B0FBF1F000F00F0011
:1049400004432C8106B0BDE8F08700000038014028
:1049500001468888C0F308007047C1F308028280CE
:10496000704700BFFEE7490050EAC12018BF04208D
:104970004A0D18BF40F0010040F2FF72B2EB515FE8
:1049800008BF40F00200012808BF052070473038FA
:104990000A2801D20120704700207047014600BF5D
:1049A0007047000070B5044600250948008800F4EF
:1049B000004058B1002006490988C1F30E01054A9C
:1049C000505421461046FBF76DFE0546284670BD43
:1049D00014000020380500202DE9F04106460D4660
:1049E00014460027002011490880314610A000F02D
:1049F000FDFAC5B1BCB10FE00A2000F0A1F90B48E7
:104A0000008800F4004038B12846FFF7CBFF00B122
:104A100006E0002005490880601E80B2041EEBD12C
:104A200000BF04B901273846BDE8F081140000201A
:104A300025730D0A0000000010B5794800680928A8
:104A400074D2DFE800F0052443626C8DACCBD90052
:104A50007448007840B900207349088073A000F0C2
:104A6000C5FA01206F4908706F48008800F40040C3
:104A700060B170A0FFF796FF28B101206849086077
:104A8000002068490870002067490880C3E0654835
:104A9000007840B900206449088067A000F0A6FAB9
:104AA0000120604908706048008800F4004060B14F
:104AB00060A0FFF777FF28B1022059490860002065
:104AC00058490870002058490880A4E055480078EB
:104AD00040B900205449088059A000F087FA01200D
:104AE000504908705048008800F4004060B151A05F
:104AF000FFF758FF28B103204949086000204949C1
:104B0000087000204849088085E0642250A152A026
:104B1000FFF762FF10B90420414908607BE041487B
:104B2000007850B900204049088000E072E04CA0B5
:104B300000F05CFA01203B4908703B48008800F413
:104B4000004060B150A0FFF72DFF28B10520344987
:104B500008600020334908700020334908805AE07B
:104B60003048007840B900202F49088049A000F063
:104B70003DFA01202B4908702B48008800F40040C2
:104B800060B12CA0FFF70EFF28B106202449086071
:104B90000020244908700020234908803BE0214878
:104BA000007840B90020204908803EA000F01EFA9D
:104BB00001201C4908701C48008800F4004060B1C6
:104BC0001CA0FFF7EFFE28B1072015490860002060
:104BD000144908700020144908801CE0642215A1C3
:104BE0003AA0FFF7F9FE642200213CA0FFF7F4FE93
:104BF00008200B4908600EE000200B4908804FF4A4
:104C00007A7000F09DF838A000F0F0F9092004490E
:104C1000086000E000BF00BF022000F091F810BD66
:104C20001C000020200000201400002041540D0A28
:104C3000000000004F4B0000415445300D0A0000B9
:104C400041542B43574D4F44453D310D0A00000060
:104C5000726561647900000041542B525354000086
:104C600041542B43574A41503D2268656C6C6F7725
:104C70006F726C64222C223432303638333230304A
:104C800031220D0A000000005749464920474F5481
:104C90002049500041542B4349504D55583D300D4B
:104CA0000A00000041542B43495053544152543D93
:104CB00022544350222C223137352E3137382E32B0
:104CC000372E3437222C36300D0A000041542B4346
:104CD00049504D4F44453D310000000041542B43A5
:104CE000495053454E4400007365617263685F77B5
:104CF0006561746865720D0A0000000010B56FF000
:104D00000400FFF797F80A4800680A49B0FBF1F081
:104D1000094908700846007800EB4001C1EBC0105B
:104D20004FF6FF7101EAC0000449088010BD000081
:104D30000000002000127A00420000204400002001
:104D40000146114A12884A434FF0E0235A6100227B
:104D50009A611A46126942F001021A6100BF4FF0CF
:104D6000E022106900F001021AB100F48032002A3A
:104D7000F5D04FF0E022126922F001024FF0E0235B
:104D80001A6100229A617047440000200146114ACE
:104D900012784A434FF0E0235A6100229A611A4682
:104DA000126942F001021A6100BF4FF0E02210695F
:104DB00000F001021AB100F48032002AF5D04FF061
:104DC000E022126922F001024FF0E0231A61002272
:104DD0009A6170474200002000BF054A128802F025
:104DE0004002002AF9D0C2B2014B1B1D1A80704745
:104DF0000038014010B5044614B101201049087074
:104E00000F48007888B120210E48FDF74FFA60B9AD
:104E10000A20FFF795FF0020094908702021094862
:104E2000FDF744FA48B9012010BD20210548FDF7DF
:104E30003DFA012801D1024908700020F4E7000082
:104E400040000020000C01400EB5FDF791FB012051
:104E50004A490860FDF7E2F808B9012000E00020A7
:104E60004749087089E0102048F230410022CDE91E
:104E70000021029043488288042301210220FEF78A
:104E8000F1F8102048F230410022CDE900210290D3
:104E90003C488279022300212A20FEF7E3F8102003
:104EA00048F230410022CDE9002102903548C27914
:104EB000022300214220FEF7D5F8102048F23041AD
:104EC0000022CDE9002102902E4802780223002121
:104ED0005A20FEF7C7F8102048F230410022CDE9F1
:104EE0000021029027484278022300217220FEF719
:104EF000B9F8102048F230410022CDE9002102909B
:104F000020488278022300218A20FEF7ABF8FDF7C3
:104F1000ACFB1B48007860B31948001DFDF7B7F8DB
:104F2000174948700846FEF725FF1549086900F043
:104F3000E1FF84B2102048F2304100220223CDE983
:104F400000210290224648213020FEF78BF80C49C0
:104F5000C86800F0CFFF84B2102048F23041002230
:104F60000223CDE90021029022465A213020FEF78B
:104F700079F8FFF761FD00F06BF974E7B481214225
:104F800064000020C806002010B50246012000E0A1
:104F900050430B1EA1F10104E1B2F9D110BD000094
:104FA00010B50F48008800F40040B0B100200C4953
:104FB0000988C1F30E010B4A50541046FBF7EFFB72
:104FC000044664210848FBF709FC621E05490648AF
:104FD000FBF77AFB002002490880002010BD00008A
:104FE0001400002038050020780000200FB438B5E8
:104FF00005A800900F48009A0499FBF73DF900209E
:1050000000900C48FBF7CBFB85B200240DE000BFFD
:1050100040210948FFF7D4FB0028F9D00548015D7D
:105020000548FFF79AFC601C84B2AC42EFDB38BC49
:105030005DF814FBA80300200048004010B586B0BE
:10504000044601210420FEF7D1FA01214804FEF7AD
:10505000ADFA0420ADF8140003208DF816001820D6
:105060008DF8170005A91C48FDF795F80820ADF844
:10507000140004208DF8170005A91748FDF78BF8D8
:1050800026208DF8000000208DF8010002208DF808
:10509000020001208DF803006846FEF73DFA0194F6
:1050A0000020ADF80800ADF80A00ADF80C00ADF82E
:1050B00010000C20ADF80E0001A90848FFF7DCFB3A
:1050C000012240F225510548FFF7B1FB01210348B9
:1050D000FFF71CFB06B010BD000801400044004073
:1050E00010B586B00446012144F20400FEF77EFAB2
:1050F0004FF40070ADF8140003208DF8160018204E
:105100008DF8170005A91C48FDF745F84FF480609D
:10511000ADF8140004208DF8170005A91648FDF716
:105120003AF825208DF8000003208DF801008DF855
:10513000020001208DF803006846FEF7EDF90194A6
:105140000020ADF80800ADF80A00ADF80C00ADF88D
:1051500010000C20ADF80E0001A90848FFF78CFBE9
:10516000012240F225510548FFF761FB0121034868
:10517000FFF7CCFA06B010BD00080140003801402E
:1051800010B586B0044601210820FEF72FFA012150
:105190008804FEF70BFA2A48FFF7C4FA4FF4806040
:1051A000ADF8100003208DF8120018208DF81300C0
:1051B00004A92448FCF7EFFF4FF40060ADF810009D
:1051C00004208DF8130004A91E48FCF7E4FF0094A6
:1051D0000020ADF80400ADF80600ADF80800ADF809
:1051E0000C000C20ADF80A0069461548FFF744FB97
:1051F00001211348FFF78AFA012240F22551104895
:10520000FFF715FB27208DF8140002208DF81500FC
:105210008DF8160001208DF8170005A8FEF77CF91F
:1052200042F2CF0140F2E730FFF782F80020064952
:10523000088000210548FFF716F906B010BD0000F0
:1052400000480040000C0140140000200004004011
:1052500070B5B0B0A44DA5480068092810D1A44885
:10526000008800F4004000280AD0FFF799FE284685
:10527000007830B99FA0FBF711F808209B4908601F
:105280002FE199499FA0FBF709F83B212846FBF73E
:10529000FFF904464CB1621B29460AA8FBF7C0FA85
:1052A0000020611B0AAA5054651C0AA998A0FAF7AD
:1052B000F5FF9BA10AA8FBF7DFFA0028E0D13B210C
:1052C0002846FBF7E5F904464CB1621B294623A8A2
:1052D000FBF7A6FA0020611B23AA5054651C23A9E2
:1052E00090A0FAF7DBFF3B212846FBF7D1F90446F3
:1052F0004CB1621B29468E48FBF792FA0020611BD5
:105300008B4A5054651C8A498AA0FAF7C7FF3B2193
:105310002846FBF7BDF904464CB1621B2946894873
:10532000FBF77EFA0020611B864A5054651C8549B4
:1053300085A0FAF7B3FF3B212846FBF7A9F90446FD
:105340004CB1621B29468448FBF76AFA0020611BB6
:10535000814A5054651C804980A0FAF79FFF3B2189
:105360002846FBF795F904464CB1621B29467F4855
:10537000FBF756FA0020611B7C4A5054651C7B49A0
:105380007BA0FAF78BFF29467E48FBF7E4F97D49BD
:105390007DA0FAF783FF04A805A906AA07ABCDE90B
:1053A0000032CDE9021008AB09AA7BA123A8FBF7C4
:1053B000ABF8DDE905210498CDE9001202907BA04D
:1053C000DDE907320999FAF769FF7D488088099974
:1053D00088421AD17A4880790899884215D178484C
:1053E000C0790799884210D175480078069988429B
:1053F0000BD1734840780599081A012805DC7048DC
:1054000080780499081A022804DD44F2500104202F
:10541000FCF7B0FE0498401CC0B20599C9B2CDE9B2
:105420000010069EF3B2079EF2B2089EF1B2099EEA
:10543000B0B2FEF7ABFA3E4D2C212846FBF728F917
:1054400004464CB1621B29465E48FBF7E9F900208F
:10545000611B5C4A5054651C5A495BA0FAF71EFF59
:1054600029465D48FBF777F95B495CA0FAF716FF20
:10547000394D5EA12846FBF715F904469CB1621B25
:1054800029465B48FBF7CCF90020611B584A505471
:10549000A51C312229465748FBF7C2F9002055497F
:1054A00081F8310003E02C495148FBF754F9514A87
:1054B0004F4951A0FAF7F2FE48F230407E23802295
:1054C0006C2100900020FDF720F900200849088099
:1054D000FDF77EFE0A200549086001215148FEF7CC
:1054E000C2FF30B070BD0000780000201C0000201A
:1054F0001400002044617461206973204E554C4CA7
:10550000210D0A0044617461203D2025730D0A00BD
:10551000636865636B203D2025730D0A0000000061
:105520004F4B000069203D2025730D0A000000004C
:105530007C010020706C616365203D2025730D0A9D
:1055400000000000760200204E6F775F74656D707A
:10555000203D2025730D0A00A802002077656174A4
:10556000686572203D2025730D0A00003E0300206F
:10557000546F6461795F74656D70203D2025730DF3
:105580000A0000007003002044616D706E65737343
:10559000203D2025730D0A0025642D25642D2564EA
:1055A0002025643A25643A256400000025642D25F1
:1055B000642D25642025643A25643A25640D0A008B
:1055C000C806002012020020706C6163655F6320D2
:1055D0003D2025730D0A000044020020706C6163B9
:1055E000655F70203D2025730D0A0000D7AA0000DA
:1055F000DA0200200C03002066697273745765613B
:1056000074686572203D202573202C207365636FBC
:105610006E6457656174686572203D2025730D0ABC
:10562000000000000008004010B500290AD00878EA
:10563000002807D005487844FBF71EF9002801D060
:10564000002010BD0248784410BD0000EE48000064
:10565000E648000010B500290AD00878002807D0D5
:1056600005487844FBF708F9002801D0002010BD58
:105670000248784410BD0000DE480000D648000013
:1056800021F00042A2F16052B2F5801F01F0004308
:1056900028BFD2F17F6C0BD95FEA001C43EAC2023B
:1056A00042EB507018BF704728BF20F001007047D0
:1056B000B2F5801FBCBF184670474FEA410C1CF57D
:1056C000001F02D2084600F0AFBC70B500F0C8FA67
:1056D00000000089FFF7F6BF4FF00040A0F5800002
:1056E0007047000010B591EA030F48BF83F00043F4
:1056F00000F11283841A71EB030C05D2121943EBEB
:105700000C03001B61EB0C01DFF824E14FEA11549C
:10571000A4EB135C1EEA430F18BF9EEA445F73D0EC
:1057200023EA0E03DCF1200E21EA045143F4801336
:1057300032D322FA0CFE10EB0E0023FA0CFE41EBE2
:105740000E01CCF1200E03FA0EFE10EB0E0051F10B
:105750000001B1F5801FCCF1200E32D201EB0451D3
:1057600012FA0EF2BDE8104058BF7047401C38BF17
:105770005FEA420218BF7047002814BF20F0010002
:1057800041F100014FEA410313F5001F38BF704794
:10579000A1F1C04100F0B2BA012A43EB0302ACF11F
:1057A000200CDCF11F0E32BF4FF0000E23FA0CF379
:1057B00010EB030041EB0451B4EB115FD0D0A1EB2F
:1057C000045101F5801149085FEA300001EB0451F2
:1057D0000ED350F1000038BF12FA0EFE08D1BDE81A
:1057E0001040C9E7401C38BF5FEA4202CAD1C3E794
:1057F000BDE810404FEA410313F5001F38BF704762
:10580000A1F1C04100F07ABA9EEA445F08D011EAE3
:105810005E0FBDE8104004BF01F00041002070475A
:10582000BDE8104070B500F01BFA00BF64FBBE3E3F
:105830000000E0FF2DE9C04130B4DFF8A0C23CEA2F
:10584000111418BF3CEA131400F0EC8081EA030540
:105850001CEA111444EAD57418BF1CEA131500F0B1
:10586000C780A4EB05044FF0004545EAC12145EA95
:10587000C32341EA505143EA525304F17F749942E1
:1058800004F500344FEAC0204FEAC22208BF90421C
:1058900000F09C804FEA13650FF24016765D4FEAE8
:1058A000134506FB05F7C7F1807706FB07F74FEABC
:1058B000D737A7FB03687642C8F58038A7FB06CE2A
:1058C00038BFA8F1010807FB08E64FF0000EA6FB61
:1058D000028CE6FB03CEDCF1000CCEF1004E38BFAB
:1058E000AEF1010EA6FB0C584FF000074FF000057B
:1058F000E6FB0E87A1FB08C6A0FB07CE16EB0E0643
:1059000045F10005E1FB076515F1E04E7EBFA4F50A
:1059100080345FEA46066D4116F1800745F10005C7
:105920004FEA17274FEA066647EA0567A6F1DE4603
:10593000B6F1805F4FEA15251FD9384624F0010CD7
:1059400005EBC471BCF1FE6F01EB0C1102D8F0BC89
:10595000BDE8008124425CBF01F5801E9EEAC47F41
:1059600002D4F0BCBDE80081244238D4F0BCA1F1DF
:10597000C041BDE8004100F0C1B94FEAD22242EA7D
:1059800043524FEAD323A7FB02864FEAD02040EAD6
:10599000415007FB03661EEA0E0F4FEAD12105FBBB
:1059A000026658BFA6EB0056B6EB00564FEA520E01
:1059B0004EEAC37E18EB0E0E56EB530EBDD518EB18
:1059C00002085E417F1C55F10005B6E74FF48015D3
:1059D0004FF000074FF000064FF00008ADE7F0BCB5
:1059E0004FF0000001F1C04101F00041BDE800812D
:1059F00011EA0C1F0CEA131500D00CE013EA0C1F7F
:105A000000F025804FF00000F0BC81EA030101F0B6
:105A10000041BDE80081F0BCBDE8004181EA03011E
:105A200000F06CB9F0BCBDE8004170B500F018F9A9
:105A3000097EFC3E00F007B881EA03014FF0000048
:105A400001F00041704781EA030100F057B9F0BC52
:105A5000BDE800414FF0000021497047FFFDFBF910
:105A6000F7F5F4F2F0EEEDEBE9E8E6E4E3E1E0DE91
:105A7000DDDBDAD8D7D5D4D3D1D0CFCDCCCBCAC803
:105A8000C7C6C5C4C2C1C0BFBEBDBCBBBAB9B8B72A
:105A9000B6B5B4B3B2B1B0AFAEADACABAAA9A8A81D
:105AA000A7A6A5A4A3A3A2A1A09F9F9E9D9C9C9BEB
:105AB0009A99999897979695959493939291919096
:105AC0008F8F8E8E8D8C8C8B8B8A89898888878727
:105AD0008685858484838382828181800000FF079C
